:100000000C9446000C9465000C9465000C946500FB
:100010000C9465000C9465000C9465000C946500CC
:100020000C9465000C9465000C9465000C946500BC
:100030000C94CB000C9465000C9465000C94D600D5
:100040000C9465000C9465000C9465000C9465009C
:100050000C9465000C9465000C9465000C9465008C
:100060000C9465000C9465000C9465000C9465007C
:100070000C9465000C9465000C9465000C9465006C
:100080000C9465000C9465000C94650011241FBE4F
:10009000CFEFD0E1DEBFCDBF11E0A0E0B1E0E0EBFB
:1000A000F6E000E00BBF02C007900D92A630B1074A
:1000B000D9F711E0A6E0B1E001C01D92A930B10767
:1000C000E1F70E94E1000C9456030C940000CF93DA
:1000D000DF9300D0CDB7DEB71A82198205C08981BF
:1000E0009A8101969A83898389819A8121E0811579
:1000F00030E2930708F020E0222389F70F900F9059
:10010000DF91CF910895CF93DF9300D000D0CDB78A
:10011000DEB7809106019091070101969093070147
:10012000809306018091060190910701833091052B
:1001300059F580910801882371F080E090E89A8356
:10014000898389819A81FC01108283E290E02FEFFC
:10015000FC0120830DC080E090E89C838B838B8121
:100160009C8124E6FC01208383E290E0FC01108264
:100170009091080181E0992309F080E080930801C3
:1001800010920701109206010F900F900F900F90A0
:10019000DF91CF9108958FE590E0FC0110810E94DE
:1001A00083008FE590E0FC01108318958FE590E0C7
:1001B000FC0110810E9483008FE590E0FC01108318
:1001C0001895CF93DF93CDB7DEB7A3970FB6F8940A
:1001D000DEBF0FBECDBF99A388A37BA36AA38DE624
:1001E00090E02DE630E0F90120812660FC012083BB
:1001F00085E590E025E530E0F90120812068FC01EB
:10020000208387E390E027E330E0F901208121603B
:10021000FC012083CE0149960E949301CE014696AF
:100220000E947B019E01275E3F4FCE014696B90199
:100230000E94EE01DC01CB018C8F9D8FAE8FBF8FB2
:10024000CE010E960E945D019E01245E3F4FCE01BD
:100250000E96B9010E941502CE010B960E94CF01A5
:10026000CE0103960E94AC019E01255F3F4FCE0157
:100270000396B9010E945A020E94E6010E9467009B
:1002800080E090E89A83898389819A8128E7FC013C
:10029000208382E090E89A83898389819A8128E784
:1002A000FC01208382E290E02FEFFC01208383E2B7
:1002B00090E02FEFFC012083FFCFCF93DF9300D09E
:1002C000CDB7DEB79A83898389819A8123E030E0B4
:1002D000FC013183208389819A8126E0E0E0F1E00E
:1002E000DC01129601900D922A95E1F70F900F9084
:1002F000DF91CF910895CF93DF9300D0CDB7DEB7D4
:100300009A83898389819A81FC01108289819A81EB
:10031000FC01118289819A81FC0112820F900F9059
:10032000DF91CF910895CF93DF9300D0CDB7DEB7A3
:100330009A83898389819A81FC01108289819A81BB
:1003400023E0FC01218389819A81FC0112820F90B4
:100350000F90DF91CF910895CF93DF9300D0CDB769
:10036000DEB79A83898389819A8121E030E0FC019C
:100370003183208389819A8126E00296FC01322F05
:1003800011923A95E9F789819A8127E530E0FC01DD
:10039000338322830F900F90DF91CF910895CF93F5
:1003A000DF9300D0CDB7DEB79A83898389819A81A4
:1003B000FC0110821182128289819A8120E1FC0164
:1003C00020830F900F90DF91CF910895CF93DF930B
:1003D000CDB7DEB77894DF91CF910895CF93DF93B7
:1003E000CDB7DEB728970FB6F894DEBF0FBECDBFEE
:1003F0009E838D8378876F832F8138858D819E8141
:10040000A901BC01CE0101960E949F0289819A81B7
:10041000AB81BC81BC01CD0128960FB6F894DEBF3C
:100420000FBECDBFDF91CF9108950F931F93CF9350
:10043000DF9300D000D000D0CDB7DEB79C838B8394
:100440007E836D831A8219821AC02B813C81898137
:100450009A810196880F991F820F931FFC010081DA
:10046000118129813A818D819E81B9010E94BE024C
:10047000F801808389819A8101969A8389838B818F
:100480009C81FC012081318141E089819A81821720
:1004900093070CF040E04423C1F68B819C812696A3
:1004A0000FB6F894DEBF0FBECDBFDF91CF911F9185
:1004B0000F9108950F931F93CF93DF9300D000D037
:1004C00000D0CDB7DEB79C838B837E836D831A8289
:1004D00019821AC02B813C8189819A810196880FEB
:1004E000991F820F931FFC010081118129813A819C
:1004F0008D819E81B9010E94E702F8018083898184
:100500009A8101969A8389838B819C81FC01208149
:10051000318141E089819A81821793070CF040E094
:100520004423C1F68B819C8126960FB6F894DEBFDA
:100530000FBECDBFDF91CF911F910F910895CF9343
:10054000DF9300D000D000D0CDB7DEB79A83898387
:100550007C836B835E834D8389819A814D815E812B
:100560002B813C81B9010E94000326960FB6F894B6
:10057000DEBF0FBECDBFDF91CF9108951F93CF9304
:10058000DF9300D000D0CDB7DEB79A8389837C8318
:100590006B8389819A81FC01808191812B813C81CF
:1005A000B9010E943D03182F89819A81FC01828143
:1005B00093812B813C81B9010E942403812B0F90F0
:1005C0000F900F900F90DF91CF911F910895CF93CF
:1005D000DF9300D000D0CDB7DEB79A8389837C83C8
:1005E0006B8329813A818B819C81820F931FFC014F
:1005F00080810F900F900F900F90DF91CF91089511
:10060000CF93DF9300D000D000D0CDB7DEB79A8370
:1006100089837C836B835E834D8389819A812B815F
:100620003C81FC013183208389819A812D813E8127
:10063000FC013383228326960FB6F894DEBF0FBEEB
:10064000CDBFDF91CF910895CF93DF9300D000D03D
:10065000CDB7DEB79A8389837C836B8329813A8106
:100660008B819C81820F931FFC0180810F900F90E2
:100670000F900F90DF91CF910895CF93DF9300D02B
:1006800000D0CDB7DEB79A8389837C836B832981C1
:100690003A818B819C81820F931FFC0180810F9096
:1006A0000F900F900F90DF91CF910895F894FFCFA6
:0606B0004F004E007A002D
:00000001FF
